{
  "_format": "hh-sol-artifact-1",
  "contractName": "Create",
  "sourceName": "contracts/Votingcontract.sol",
  "abi": [
    {
      "inputs": [],
      "stateMutability": "nonpayable",
      "type": "constructor"
    },
    {
      "anonymous": false,
      "inputs": [
        {
          "indexed": true,
          "internalType": "uint256",
          "name": "candidateId",
          "type": "uint256"
        },
        {
          "indexed": false,
          "internalType": "string",
          "name": "age",
          "type": "string"
        },
        {
          "indexed": false,
          "internalType": "string",
          "name": "name",
          "type": "string"
        },
        {
          "indexed": false,
          "internalType": "string",
          "name": "image",
          "type": "string"
        },
        {
          "indexed": false,
          "internalType": "uint256",
          "name": "voteCount",
          "type": "uint256"
        },
        {
          "indexed": false,
          "internalType": "address",
          "name": "_address",
          "type": "address"
        },
        {
          "indexed": false,
          "internalType": "string",
          "name": "ipfs",
          "type": "string"
        }
      ],
      "name": "CandidateCreate",
      "type": "event"
    },
    {
      "anonymous": false,
      "inputs": [
        {
          "indexed": false,
          "internalType": "uint256",
          "name": "voter_voterId",
          "type": "uint256"
        },
        {
          "indexed": false,
          "internalType": "string",
          "name": "voter_name",
          "type": "string"
        },
        {
          "indexed": false,
          "internalType": "string",
          "name": "voter_image",
          "type": "string"
        },
        {
          "indexed": false,
          "internalType": "address",
          "name": "voter_address",
          "type": "address"
        },
        {
          "indexed": false,
          "internalType": "uint256",
          "name": "voter_allowed",
          "type": "uint256"
        },
        {
          "indexed": false,
          "internalType": "bool",
          "name": "voter_voted",
          "type": "bool"
        },
        {
          "indexed": false,
          "internalType": "uint256",
          "name": "voter_vote",
          "type": "uint256"
        },
        {
          "indexed": false,
          "internalType": "string",
          "name": "voter_ipfs",
          "type": "string"
        }
      ],
      "name": "VoterCreated",
      "type": "event"
    },
    {
      "inputs": [],
      "name": "_candidateId",
      "outputs": [
        {
          "internalType": "uint256",
          "name": "_value",
          "type": "uint256"
        }
      ],
      "stateMutability": "view",
      "type": "function"
    },
    {
      "inputs": [],
      "name": "_voterId",
      "outputs": [
        {
          "internalType": "uint256",
          "name": "_value",
          "type": "uint256"
        }
      ],
      "stateMutability": "view",
      "type": "function"
    },
    {
      "inputs": [
        {
          "internalType": "uint256",
          "name": "",
          "type": "uint256"
        }
      ],
      "name": "candidateAddress",
      "outputs": [
        {
          "internalType": "address",
          "name": "",
          "type": "address"
        }
      ],
      "stateMutability": "view",
      "type": "function"
    },
    {
      "inputs": [
        {
          "internalType": "address",
          "name": "",
          "type": "address"
        }
      ],
      "name": "candidates",
      "outputs": [
        {
          "internalType": "uint256",
          "name": "candidateId",
          "type": "uint256"
        },
        {
          "internalType": "string",
          "name": "age",
          "type": "string"
        },
        {
          "internalType": "string",
          "name": "name",
          "type": "string"
        },
        {
          "internalType": "string",
          "name": "image",
          "type": "string"
        },
        {
          "internalType": "uint256",
          "name": "voteCount",
          "type": "uint256"
        },
        {
          "internalType": "address",
          "name": "_address",
          "type": "address"
        },
        {
          "internalType": "string",
          "name": "ipfs",
          "type": "string"
        }
      ],
      "stateMutability": "view",
      "type": "function"
    },
    {
      "inputs": [],
      "name": "getCandidate",
      "outputs": [
        {
          "internalType": "address[]",
          "name": "",
          "type": "address[]"
        }
      ],
      "stateMutability": "view",
      "type": "function"
    },
    {
      "inputs": [],
      "name": "getCandidateLength",
      "outputs": [
        {
          "internalType": "uint256",
          "name": "",
          "type": "uint256"
        }
      ],
      "stateMutability": "view",
      "type": "function"
    },
    {
      "inputs": [
        {
          "internalType": "address",
          "name": "_address",
          "type": "address"
        }
      ],
      "name": "getCandidatedata",
      "outputs": [
        {
          "internalType": "string",
          "name": "",
          "type": "string"
        },
        {
          "internalType": "string",
          "name": "",
          "type": "string"
        },
        {
          "internalType": "uint256",
          "name": "",
          "type": "uint256"
        },
        {
          "internalType": "string",
          "name": "",
          "type": "string"
        },
        {
          "internalType": "uint256",
          "name": "",
          "type": "uint256"
        },
        {
          "internalType": "string",
          "name": "",
          "type": "string"
        },
        {
          "internalType": "address",
          "name": "",
          "type": "address"
        }
      ],
      "stateMutability": "view",
      "type": "function"
    },
    {
      "inputs": [],
      "name": "getVoterLength",
      "outputs": [
        {
          "internalType": "uint256",
          "name": "",
          "type": "uint256"
        }
      ],
      "stateMutability": "view",
      "type": "function"
    },
    {
      "inputs": [
        {
          "internalType": "address",
          "name": "_address",
          "type": "address"
        }
      ],
      "name": "getVoterdata",
      "outputs": [
        {
          "internalType": "uint256",
          "name": "",
          "type": "uint256"
        },
        {
          "internalType": "string",
          "name": "",
          "type": "string"
        },
        {
          "internalType": "string",
          "name": "",
          "type": "string"
        },
        {
          "internalType": "address",
          "name": "",
          "type": "address"
        },
        {
          "internalType": "string",
          "name": "",
          "type": "string"
        },
        {
          "internalType": "uint256",
          "name": "",
          "type": "uint256"
        },
        {
          "internalType": "bool",
          "name": "",
          "type": "bool"
        }
      ],
      "stateMutability": "view",
      "type": "function"
    },
    {
      "inputs": [],
      "name": "getVoterlist",
      "outputs": [
        {
          "internalType": "address[]",
          "name": "",
          "type": "address[]"
        }
      ],
      "stateMutability": "view",
      "type": "function"
    },
    {
      "inputs": [],
      "name": "getvotedvoterlist",
      "outputs": [
        {
          "internalType": "address[]",
          "name": "",
          "type": "address[]"
        }
      ],
      "stateMutability": "view",
      "type": "function"
    },
    {
      "inputs": [
        {
          "internalType": "address",
          "name": "_address",
          "type": "address"
        },
        {
          "internalType": "string",
          "name": "_age",
          "type": "string"
        },
        {
          "internalType": "string",
          "name": "_name",
          "type": "string"
        },
        {
          "internalType": "string",
          "name": "_image",
          "type": "string"
        },
        {
          "internalType": "string",
          "name": "_ipfs",
          "type": "string"
        }
      ],
      "name": "setcandidate",
      "outputs": [],
      "stateMutability": "nonpayable",
      "type": "function"
    },
    {
      "inputs": [
        {
          "internalType": "address",
          "name": "_candidateAddress",
          "type": "address"
        },
        {
          "internalType": "uint256",
          "name": "_candidateVoteId",
          "type": "uint256"
        }
      ],
      "name": "vote",
      "outputs": [],
      "stateMutability": "nonpayable",
      "type": "function"
    },
    {
      "inputs": [
        {
          "internalType": "uint256",
          "name": "",
          "type": "uint256"
        }
      ],
      "name": "votedVoters",
      "outputs": [
        {
          "internalType": "address",
          "name": "",
          "type": "address"
        }
      ],
      "stateMutability": "view",
      "type": "function"
    },
    {
      "inputs": [
        {
          "internalType": "address",
          "name": "_address",
          "type": "address"
        },
        {
          "internalType": "string",
          "name": "_name",
          "type": "string"
        },
        {
          "internalType": "string",
          "name": "_image",
          "type": "string"
        },
        {
          "internalType": "string",
          "name": "_ipfs",
          "type": "string"
        }
      ],
      "name": "voterRight",
      "outputs": [],
      "stateMutability": "nonpayable",
      "type": "function"
    },
    {
      "inputs": [
        {
          "internalType": "address",
          "name": "",
          "type": "address"
        }
      ],
      "name": "voters",
      "outputs": [
        {
          "internalType": "uint256",
          "name": "voter_voterId",
          "type": "uint256"
        },
        {
          "internalType": "string",
          "name": "voter_name",
          "type": "string"
        },
        {
          "internalType": "string",
          "name": "voter_image",
          "type": "string"
        },
        {
          "internalType": "address",
          "name": "voter_address",
          "type": "address"
        },
        {
          "internalType": "uint256",
          "name": "voter_allowed",
          "type": "uint256"
        },
        {
          "internalType": "bool",
          "name": "voter_voted",
          "type": "bool"
        },
        {
          "internalType": "uint256",
          "name": "voter_vote",
          "type": "uint256"
        },
        {
          "internalType": "string",
          "name": "voter_ipfs",
          "type": "string"
        }
      ],
      "stateMutability": "view",
      "type": "function"
    },
    {
      "inputs": [
        {
          "internalType": "uint256",
          "name": "",
          "type": "uint256"
        }
      ],
      "name": "votersAddress",
      "outputs": [
        {
          "internalType": "address",
          "name": "",
          "type": "address"
        }
      ],
      "stateMutability": "view",
      "type": "function"
    },
    {
      "inputs": [],
      "name": "votingOrganizer",
      "outputs": [
        {
          "internalType": "address",
          "name": "",
          "type": "address"
        }
      ],
      "stateMutability": "view",
      "type": "function"
    }
  ],
  "bytecode": "0x608060405234801561001057600080fd5b5033600260006101000a81548173ffffffffffffffffffffffffffffffffffffffff021916908373ffffffffffffffffffffffffffffffffffffffff1602179055506128bf806100616000396000f3fe608060405234801561001057600080fd5b50600436106101165760003560e01c806370218b85116100a2578063a738896711610071578063a738896714610302578063b63c82ca14610320578063b9be315214610356578063c5036fd414610374578063f7522a83146103aa57610116565b806370218b85146102475780637831ffb3146102655780638ab66a9014610295578063a3ec138d146102cb57610116565b80633a88251a116100e95780633a88251a1461018f57806343242daa146101bf5780635cc48aa7146101ef5780635f74bbde1461020d578063677c05a41461022957610116565b80630201cd991461011b5780630361419e1461013757806305ad45a41461015357806318e2c30e14610171575b600080fd5b61013560048036038101906101309190611b6d565b6103c8565b005b610151600480360381019061014c9190611c58565b610603565b005b61015b61086d565b6040516101689190611d2c565b60405180910390f35b61017961087a565b6040516101869190611e05565b60405180910390f35b6101a960048036038101906101a49190611e53565b610908565b6040516101b69190611e8f565b60405180910390f35b6101d960048036038101906101d49190611e53565b610947565b6040516101e69190611e8f565b60405180910390f35b6101f7610986565b6040516102049190611e8f565b60405180910390f35b61022760048036038101906102229190611eaa565b6109ac565b005b610231610b73565b60405161023e9190611e05565b60405180910390f35b61024f610c01565b60405161025c9190611e05565b60405180910390f35b61027f600480360381019061027a9190611e53565b610c8f565b60405161028c9190611e8f565b60405180910390f35b6102af60048036038101906102aa9190611eea565b610cce565b6040516102c29796959493929190611f96565b60405180910390f35b6102e560048036038101906102e09190611eea565b610f50565b6040516102f998979695949392919061203c565b60405180910390f35b61030a61115d565b6040516103179190611d2c565b60405180910390f35b61033a60048036038101906103359190611eea565b611169565b60405161034d97969594939291906120cf565b60405180910390f35b61035e6115b0565b60405161036b9190611d2c565b60405180910390f35b61038e60048036038101906103899190611eea565b6115bc565b6040516103a1979695949392919061215a565b60405180910390f35b6103b2611984565b6040516103bf9190611d2c565b60405180910390f35b3373ffffffffffffffffffffffffffffffffffffffff16600260009054906101000a900473ffffffffffffffffffffffffffffffffffffffff1673ffffffffffffffffffffffffffffffffffffffff1614610458576040517f08c379a000000000000000000000000000000000000000000000000000000000815260040161044f9061222a565b60405180910390fd5b6104626001611991565b600061046e60016119a7565b90506000600460008873ffffffffffffffffffffffffffffffffffffffff1673ffffffffffffffffffffffffffffffffffffffff1681526020019081526020016000209050858160010190816104c49190612456565b50848160020190816104d69190612456565b50818160000181905550838160030190816104f19190612456565b5060008160040181905550868160050160006101000a81548173ffffffffffffffffffffffffffffffffffffffff021916908373ffffffffffffffffffffffffffffffffffffffff160217905550828160060190816105509190612456565b506003879080600181540180825580915050600190039060005260206000200160009091909190916101000a81548173ffffffffffffffffffffffffffffffffffffffff021916908373ffffffffffffffffffffffffffffffffffffffff160217905550817fd297f12b256bb8485a6013fb5e302017018123e99a0ebb20756c09e1707b4b9087878785600401548c896040516105f296959493929190612528565b60405180910390a250505050505050565b3373ffffffffffffffffffffffffffffffffffffffff16600260009054906101000a900473ffffffffffffffffffffffffffffffffffffffff1673ffffffffffffffffffffffffffffffffffffffff1614610693576040517f08c379a000000000000000000000000000000000000000000000000000000000815260040161068a90612617565b60405180910390fd5b61069d6000611991565b60006106a960006119a7565b90506000600760008773ffffffffffffffffffffffffffffffffffffffff1673ffffffffffffffffffffffffffffffffffffffff168152602001908152602001600020905060008160040154146106ff57600080fd5b600181600401819055508481600101908161071a9190612456565b50858160030160006101000a81548173ffffffffffffffffffffffffffffffffffffffff021916908373ffffffffffffffffffffffffffffffffffffffff1602179055508181600001819055506103e8816006018190555060008160050160006101000a81548160ff021916908315150217905550828160070190816107a09190612456565b506006869080600181540180825580915050600190039060005260206000200160009091909190916101000a81548173ffffffffffffffffffffffffffffffffffffffff021916908373ffffffffffffffffffffffffffffffffffffffff1602179055507ff5f39971dd62d9929e3a9feaa6bb77fe7c7da0001babff8a65a7e51ad0201c198286868985600401548660050160009054906101000a900460ff1687600601548860070160405161085d9897969594939291906126bb565b60405180910390a1505050505050565b6000600680549050905090565b606060068054806020026020016040519081016040528092919081815260200182805480156108fe57602002820191906000526020600020905b8160009054906101000a900473ffffffffffffffffffffffffffffffffffffffff1673ffffffffffffffffffffffffffffffffffffffff16815260200190600101908083116108b4575b5050505050905090565b6003818154811061091857600080fd5b906000526020600020016000915054906101000a900473ffffffffffffffffffffffffffffffffffffffff1681565b6006818154811061095757600080fd5b906000526020600020016000915054906101000a900473ffffffffffffffffffffffffffffffffffffffff1681565b600260009054906101000a900473ffffffffffffffffffffffffffffffffffffffff1681565b6000600760003373ffffffffffffffffffffffffffffffffffffffff1673ffffffffffffffffffffffffffffffffffffffff16815260200190815260200160002090508060050160009054906101000a900460ff1615610a41576040517f08c379a0000000000000000000000000000000000000000000000000000000008152600401610a389061279a565b60405180910390fd5b6000816004015403610a88576040517f08c379a0000000000000000000000000000000000000000000000000000000008152600401610a7f90612806565b60405180910390fd5b60018160050160006101000a81548160ff0219169083151502179055508181600601819055506005339080600181540180825580915050600190039060005260206000200160009091909190916101000a81548173ffffffffffffffffffffffffffffffffffffffff021916908373ffffffffffffffffffffffffffffffffffffffff1602179055508060040154600460008573ffffffffffffffffffffffffffffffffffffffff1673ffffffffffffffffffffffffffffffffffffffff1681526020019081526020016000206004016000828254610b679190612855565b92505081905550505050565b60606005805480602002602001604051908101604052809291908181526020018280548015610bf757602002820191906000526020600020905b8160009054906101000a900473ffffffffffffffffffffffffffffffffffffffff1673ffffffffffffffffffffffffffffffffffffffff1681526020019060010190808311610bad575b5050505050905090565b60606003805480602002602001604051908101604052809291908181526020018280548015610c8557602002820191906000526020600020905b8160009054906101000a900473ffffffffffffffffffffffffffffffffffffffff1673ffffffffffffffffffffffffffffffffffffffff1681526020019060010190808311610c3b575b5050505050905090565b60058181548110610c9f57600080fd5b906000526020600020016000915054906101000a900473ffffffffffffffffffffffffffffffffffffffff1681565b6004602052806000526040600020600091509050806000015490806001018054610cf790612279565b80601f0160208091040260200160405190810160405280929190818152602001828054610d2390612279565b8015610d705780601f10610d4557610100808354040283529160200191610d70565b820191906000526020600020905b815481529060010190602001808311610d5357829003601f168201915b505050505090806002018054610d8590612279565b80601f0160208091040260200160405190810160405280929190818152602001828054610db190612279565b8015610dfe5780601f10610dd357610100808354040283529160200191610dfe565b820191906000526020600020905b815481529060010190602001808311610de157829003601f168201915b505050505090806003018054610e1390612279565b80601f0160208091040260200160405190810160405280929190818152602001828054610e3f90612279565b8015610e8c5780601f10610e6157610100808354040283529160200191610e8c565b820191906000526020600020905b815481529060010190602001808311610e6f57829003601f168201915b5050505050908060040154908060050160009054906101000a900473ffffffffffffffffffffffffffffffffffffffff1690806006018054610ecd90612279565b80601f0160208091040260200160405190810160405280929190818152602001828054610ef990612279565b8015610f465780601f10610f1b57610100808354040283529160200191610f46565b820191906000526020600020905b815481529060010190602001808311610f2957829003601f168201915b5050505050905087565b6007602052806000526040600020600091509050806000015490806001018054610f7990612279565b80601f0160208091040260200160405190810160405280929190818152602001828054610fa590612279565b8015610ff25780601f10610fc757610100808354040283529160200191610ff2565b820191906000526020600020905b815481529060010190602001808311610fd557829003601f168201915b50505050509080600201805461100790612279565b80601f016020809104026020016040519081016040528092919081815260200182805461103390612279565b80156110805780601f1061105557610100808354040283529160200191611080565b820191906000526020600020905b81548152906001019060200180831161106357829003601f168201915b5050505050908060030160009054906101000a900473ffffffffffffffffffffffffffffffffffffffff16908060040154908060050160009054906101000a900460ff16908060060154908060070180546110da90612279565b80601f016020809104026020016040519081016040528092919081815260200182805461110690612279565b80156111535780601f1061112857610100808354040283529160200191611153565b820191906000526020600020905b81548152906001019060200180831161113657829003601f168201915b5050505050905088565b60018060000154905081565b60608060006060600060606000600460008973ffffffffffffffffffffffffffffffffffffffff1673ffffffffffffffffffffffffffffffffffffffff168152602001908152602001600020600101600460008a73ffffffffffffffffffffffffffffffffffffffff1673ffffffffffffffffffffffffffffffffffffffff168152602001908152602001600020600201600460008b73ffffffffffffffffffffffffffffffffffffffff1673ffffffffffffffffffffffffffffffffffffffff16815260200190815260200160002060000154600460008c73ffffffffffffffffffffffffffffffffffffffff1673ffffffffffffffffffffffffffffffffffffffff168152602001908152602001600020600301600460008d73ffffffffffffffffffffffffffffffffffffffff1673ffffffffffffffffffffffffffffffffffffffff16815260200190815260200160002060040154600460008e73ffffffffffffffffffffffffffffffffffffffff1673ffffffffffffffffffffffffffffffffffffffff168152602001908152602001600020600601600460008f73ffffffffffffffffffffffffffffffffffffffff1673ffffffffffffffffffffffffffffffffffffffff16815260200190815260200160002060050160009054906101000a900473ffffffffffffffffffffffffffffffffffffffff1686805461137390612279565b80601f016020809104026020016040519081016040528092919081815260200182805461139f90612279565b80156113ec5780601f106113c1576101008083540402835291602001916113ec565b820191906000526020600020905b8154815290600101906020018083116113cf57829003601f168201915b505050505096508580546113ff90612279565b80601f016020809104026020016040519081016040528092919081815260200182805461142b90612279565b80156114785780601f1061144d57610100808354040283529160200191611478565b820191906000526020600020905b81548152906001019060200180831161145b57829003601f168201915b5050505050955083805461148b90612279565b80601f01602080910402602001604051908101604052809291908181526020018280546114b790612279565b80156115045780601f106114d957610100808354040283529160200191611504565b820191906000526020600020905b8154815290600101906020018083116114e757829003601f168201915b5050505050935081805461151790612279565b80601f016020809104026020016040519081016040528092919081815260200182805461154390612279565b80156115905780601f1061156557610100808354040283529160200191611590565b820191906000526020600020905b81548152906001019060200180831161157357829003601f168201915b505050505091509650965096509650965096509650919395979092949650565b60008060000154905081565b600060608060006060600080600760008973ffffffffffffffffffffffffffffffffffffffff1673ffffffffffffffffffffffffffffffffffffffff16815260200190815260200160002060000154600760008a73ffffffffffffffffffffffffffffffffffffffff1673ffffffffffffffffffffffffffffffffffffffff168152602001908152602001600020600101600760008b73ffffffffffffffffffffffffffffffffffffffff1673ffffffffffffffffffffffffffffffffffffffff168152602001908152602001600020600201600760008c73ffffffffffffffffffffffffffffffffffffffff1673ffffffffffffffffffffffffffffffffffffffff16815260200190815260200160002060030160009054906101000a900473ffffffffffffffffffffffffffffffffffffffff16600760008d73ffffffffffffffffffffffffffffffffffffffff1673ffffffffffffffffffffffffffffffffffffffff168152602001908152602001600020600701600760008e73ffffffffffffffffffffffffffffffffffffffff1673ffffffffffffffffffffffffffffffffffffffff16815260200190815260200160002060040154600760008f73ffffffffffffffffffffffffffffffffffffffff1673ffffffffffffffffffffffffffffffffffffffff16815260200190815260200160002060050160009054906101000a900460ff168580546117d390612279565b80601f01602080910402602001604051908101604052809291908181526020018280546117ff90612279565b801561184c5780601f106118215761010080835404028352916020019161184c565b820191906000526020600020905b81548152906001019060200180831161182f57829003601f168201915b5050505050955084805461185f90612279565b80601f016020809104026020016040519081016040528092919081815260200182805461188b90612279565b80156118d85780601f106118ad576101008083540402835291602001916118d8565b820191906000526020600020905b8154815290600101906020018083116118bb57829003601f168201915b505050505094508280546118eb90612279565b80601f016020809104026020016040519081016040528092919081815260200182805461191790612279565b80156119645780601f1061193957610100808354040283529160200191611964565b820191906000526020600020905b81548152906001019060200180831161194757829003601f168201915b505050505092509650965096509650965096509650919395979092949650565b6000600380549050905090565b6001816000016000828254019250508190555050565b600081600001549050919050565b6000604051905090565b600080fd5b600080fd5b600073ffffffffffffffffffffffffffffffffffffffff82169050919050565b60006119f4826119c9565b9050919050565b611a04816119e9565b8114611a0f57600080fd5b50565b600081359050611a21816119fb565b92915050565b600080fd5b600080fd5b6000601f19601f8301169050919050565b7f4e487b7100000000000000000000000000000000000000000000000000000000600052604160045260246000fd5b611a7a82611a31565b810181811067ffffffffffffffff82111715611a9957611a98611a42565b5b80604052505050565b6000611aac6119b5565b9050611ab88282611a71565b919050565b600067ffffffffffffffff821115611ad857611ad7611a42565b5b611ae182611a31565b9050602081019050919050565b82818337600083830152505050565b6000611b10611b0b84611abd565b611aa2565b905082815260208101848484011115611b2c57611b2b611a2c565b5b611b37848285611aee565b509392505050565b600082601f830112611b5457611b53611a27565b5b8135611b64848260208601611afd565b91505092915050565b600080600080600060a08688031215611b8957611b886119bf565b5b6000611b9788828901611a12565b955050602086013567ffffffffffffffff811115611bb857611bb76119c4565b5b611bc488828901611b3f565b945050604086013567ffffffffffffffff811115611be557611be46119c4565b5b611bf188828901611b3f565b935050606086013567ffffffffffffffff811115611c1257611c116119c4565b5b611c1e88828901611b3f565b925050608086013567ffffffffffffffff811115611c3f57611c3e6119c4565b5b611c4b88828901611b3f565b9150509295509295909350565b60008060008060808587031215611c7257611c716119bf565b5b6000611c8087828801611a12565b945050602085013567ffffffffffffffff811115611ca157611ca06119c4565b5b611cad87828801611b3f565b935050604085013567ffffffffffffffff811115611cce57611ccd6119c4565b5b611cda87828801611b3f565b925050606085013567ffffffffffffffff811115611cfb57611cfa6119c4565b5b611d0787828801611b3f565b91505092959194509250565b6000819050919050565b611d2681611d13565b82525050565b6000602082019050611d416000830184611d1d565b92915050565b600081519050919050565b600082825260208201905092915050565b6000819050602082019050919050565b611d7c816119e9565b82525050565b6000611d8e8383611d73565b60208301905092915050565b6000602082019050919050565b6000611db282611d47565b611dbc8185611d52565b9350611dc783611d63565b8060005b83811015611df8578151611ddf8882611d82565b9750611dea83611d9a565b925050600181019050611dcb565b5085935050505092915050565b60006020820190508181036000830152611e1f8184611da7565b905092915050565b611e3081611d13565b8114611e3b57600080fd5b50565b600081359050611e4d81611e27565b92915050565b600060208284031215611e6957611e686119bf565b5b6000611e7784828501611e3e565b91505092915050565b611e89816119e9565b82525050565b6000602082019050611ea46000830184611e80565b92915050565b60008060408385031215611ec157611ec06119bf565b5b6000611ecf85828601611a12565b9250506020611ee085828601611e3e565b9150509250929050565b600060208284031215611f0057611eff6119bf565b5b6000611f0e84828501611a12565b91505092915050565b600081519050919050565b600082825260208201905092915050565b60005b83811015611f51578082015181840152602081019050611f36565b60008484015250505050565b6000611f6882611f17565b611f728185611f22565b9350611f82818560208601611f33565b611f8b81611a31565b840191505092915050565b600060e082019050611fab600083018a611d1d565b8181036020830152611fbd8189611f5d565b90508181036040830152611fd18188611f5d565b90508181036060830152611fe58187611f5d565b9050611ff46080830186611d1d565b61200160a0830185611e80565b81810360c08301526120138184611f5d565b905098975050505050505050565b60008115159050919050565b61203681612021565b82525050565b600061010082019050612052600083018b611d1d565b8181036020830152612064818a611f5d565b905081810360408301526120788189611f5d565b90506120876060830188611e80565b6120946080830187611d1d565b6120a160a083018661202d565b6120ae60c0830185611d1d565b81810360e08301526120c08184611f5d565b90509998505050505050505050565b600060e08201905081810360008301526120e9818a611f5d565b905081810360208301526120fd8189611f5d565b905061210c6040830188611d1d565b818103606083015261211e8187611f5d565b905061212d6080830186611d1d565b81810360a083015261213f8185611f5d565b905061214e60c0830184611e80565b98975050505050505050565b600060e08201905061216f600083018a611d1d565b81810360208301526121818189611f5d565b905081810360408301526121958188611f5d565b90506121a46060830187611e80565b81810360808301526121b68186611f5d565b90506121c560a0830185611d1d565b6121d260c083018461202d565b98975050505050505050565b7f4f6e6c79206f7267616e697a65722063616e206164642063616e646964617465600082015250565b6000612214602083611f22565b915061221f826121de565b602082019050919050565b6000602082019050818103600083015261224381612207565b9050919050565b7f4e487b7100000000000000000000000000000000000000000000000000000000600052602260045260246000fd5b6000600282049050600182168061229157607f821691505b6020821081036122a4576122a361224a565b5b50919050565b60008190508160005260206000209050919050565b60006020601f8301049050919050565b600082821b905092915050565b60006008830261230c7fffffffffffffffffffffffffffffffffffffffffffffffffffffffffffffffff826122cf565b61231686836122cf565b95508019841693508086168417925050509392505050565b6000819050919050565b600061235361234e61234984611d13565b61232e565b611d13565b9050919050565b6000819050919050565b61236d83612338565b6123816123798261235a565b8484546122dc565b825550505050565b600090565b612396612389565b6123a1818484612364565b505050565b5b818110156123c5576123ba60008261238e565b6001810190506123a7565b5050565b601f82111561240a576123db816122aa565b6123e4846122bf565b810160208510156123f3578190505b6124076123ff856122bf565b8301826123a6565b50505b505050565b600082821c905092915050565b600061242d6000198460080261240f565b1980831691505092915050565b6000612446838361241c565b9150826002028217905092915050565b61245f82611f17565b67ffffffffffffffff81111561247857612477611a42565b5b6124828254612279565b61248d8282856123c9565b600060209050601f8311600181146124c057600084156124ae578287015190505b6124b8858261243a565b865550612520565b601f1984166124ce866122aa565b60005b828110156124f6578489015182556001820191506020850194506020810190506124d1565b86831015612513578489015161250f601f89168261241c565b8355505b6001600288020188555050505b505050505050565b600060c08201905081810360008301526125428189611f5d565b905081810360208301526125568188611f5d565b9050818103604083015261256a8187611f5d565b90506125796060830186611d1d565b6125866080830185611e80565b81810360a08301526125988184611f5d565b9050979650505050505050565b7f6f6e6c79206f7267616e697365722063616e20637265617465206120766f746560008201527f7200000000000000000000000000000000000000000000000000000000000000602082015250565b6000612601602183611f22565b915061260c826125a5565b604082019050919050565b60006020820190508181036000830152612630816125f4565b9050919050565b6000815461264481612279565b61264e8186611f22565b94506001821660008114612669576001811461267f576126b2565b60ff1983168652811515602002860193506126b2565b612688856122aa565b60005b838110156126aa5781548189015260018201915060208101905061268b565b808801955050505b50505092915050565b6000610100820190506126d1600083018b611d1d565b81810360208301526126e3818a611f5d565b905081810360408301526126f78189611f5d565b90506127066060830188611e80565b6127136080830187611d1d565b61272060a083018661202d565b61272d60c0830185611d1d565b81810360e083015261273f8184612637565b90509998505050505050505050565b7f596f75206861766520616c726561647920766f74656400000000000000000000600082015250565b6000612784601683611f22565b915061278f8261274e565b602082019050919050565b600060208201905081810360008301526127b381612777565b9050919050565b7f596f752068617665206e6f20726967687420746f20766f746500000000000000600082015250565b60006127f0601983611f22565b91506127fb826127ba565b602082019050919050565b6000602082019050818103600083015261281f816127e3565b9050919050565b7f4e487b7100000000000000000000000000000000000000000000000000000000600052601160045260246000fd5b600061286082611d13565b915061286b83611d13565b925082820190508082111561288357612882612826565b5b9291505056fea26469706673582212209a42941fad48711590ab91aab1f3aa9f3d95eb0ab2ab41d12e83f262a81b39f664736f6c63430008130033",
  "linkReferences": {},
  "deployedLinkReferences": {}
}